{
  "_format": "hh-sol-artifact-1",
  "contractName": "MetaJam_Awards",
  "sourceName": "contracts/MetaJam_Awards.sol",
  "abi": [
    {
      "inputs": [],
      "stateMutability": "nonpayable",
      "type": "constructor"
    },
    {
      "anonymous": false,
      "inputs": [
        {
          "indexed": true,
          "internalType": "address",
          "name": "owner",
          "type": "address"
        },
        {
          "indexed": true,
          "internalType": "address",
          "name": "approved",
          "type": "address"
        },
        {
          "indexed": true,
          "internalType": "uint256",
          "name": "tokenId",
          "type": "uint256"
        }
      ],
      "name": "Approval",
      "type": "event"
    },
    {
      "anonymous": false,
      "inputs": [
        {
          "indexed": true,
          "internalType": "address",
          "name": "owner",
          "type": "address"
        },
        {
          "indexed": true,
          "internalType": "address",
          "name": "operator",
          "type": "address"
        },
        {
          "indexed": false,
          "internalType": "bool",
          "name": "approved",
          "type": "bool"
        }
      ],
      "name": "ApprovalForAll",
      "type": "event"
    },
    {
      "anonymous": false,
      "inputs": [
        {
          "indexed": true,
          "internalType": "address",
          "name": "previousOwner",
          "type": "address"
        },
        {
          "indexed": true,
          "internalType": "address",
          "name": "newOwner",
          "type": "address"
        }
      ],
      "name": "OwnershipTransferred",
      "type": "event"
    },
    {
      "anonymous": false,
      "inputs": [
        {
          "indexed": true,
          "internalType": "address",
          "name": "from",
          "type": "address"
        },
        {
          "indexed": true,
          "internalType": "address",
          "name": "to",
          "type": "address"
        },
        {
          "indexed": true,
          "internalType": "uint256",
          "name": "tokenId",
          "type": "uint256"
        }
      ],
      "name": "Transfer",
      "type": "event"
    },
    {
      "anonymous": false,
      "inputs": [
        {
          "indexed": true,
          "internalType": "uint256",
          "name": "tokenId",
          "type": "uint256"
        },
        {
          "indexed": false,
          "internalType": "address",
          "name": "receiver",
          "type": "address"
        }
      ],
      "name": "grantToken",
      "type": "event"
    },
    {
      "inputs": [
        {
          "internalType": "address",
          "name": "to",
          "type": "address"
        },
        {
          "internalType": "uint256",
          "name": "tokenId",
          "type": "uint256"
        }
      ],
      "name": "approve",
      "outputs": [],
      "stateMutability": "nonpayable",
      "type": "function"
    },
    {
      "inputs": [
        {
          "internalType": "address",
          "name": "owner",
          "type": "address"
        }
      ],
      "name": "balanceOf",
      "outputs": [
        {
          "internalType": "uint256",
          "name": "",
          "type": "uint256"
        }
      ],
      "stateMutability": "view",
      "type": "function"
    },
    {
      "inputs": [
        {
          "internalType": "uint256",
          "name": "tokenId",
          "type": "uint256"
        }
      ],
      "name": "getApproved",
      "outputs": [
        {
          "internalType": "address",
          "name": "",
          "type": "address"
        }
      ],
      "stateMutability": "view",
      "type": "function"
    },
    {
      "inputs": [
        {
          "internalType": "address",
          "name": "receiver",
          "type": "address"
        },
        {
          "internalType": "string",
          "name": "_tokenURI",
          "type": "string"
        }
      ],
      "name": "grant",
      "outputs": [],
      "stateMutability": "nonpayable",
      "type": "function"
    },
    {
      "inputs": [
        {
          "internalType": "address",
          "name": "owner",
          "type": "address"
        },
        {
          "internalType": "address",
          "name": "operator",
          "type": "address"
        }
      ],
      "name": "isApprovedForAll",
      "outputs": [
        {
          "internalType": "bool",
          "name": "",
          "type": "bool"
        }
      ],
      "stateMutability": "view",
      "type": "function"
    },
    {
      "inputs": [],
      "name": "name",
      "outputs": [
        {
          "internalType": "string",
          "name": "",
          "type": "string"
        }
      ],
      "stateMutability": "view",
      "type": "function"
    },
    {
      "inputs": [],
      "name": "owner",
      "outputs": [
        {
          "internalType": "address",
          "name": "",
          "type": "address"
        }
      ],
      "stateMutability": "view",
      "type": "function"
    },
    {
      "inputs": [
        {
          "internalType": "uint256",
          "name": "tokenId",
          "type": "uint256"
        }
      ],
      "name": "ownerOf",
      "outputs": [
        {
          "internalType": "address",
          "name": "",
          "type": "address"
        }
      ],
      "stateMutability": "view",
      "type": "function"
    },
    {
      "inputs": [],
      "name": "renounceOwnership",
      "outputs": [],
      "stateMutability": "nonpayable",
      "type": "function"
    },
    {
      "inputs": [
        {
          "internalType": "address",
          "name": "from",
          "type": "address"
        },
        {
          "internalType": "address",
          "name": "to",
          "type": "address"
        },
        {
          "internalType": "uint256",
          "name": "tokenId",
          "type": "uint256"
        }
      ],
      "name": "safeTransferFrom",
      "outputs": [],
      "stateMutability": "nonpayable",
      "type": "function"
    },
    {
      "inputs": [
        {
          "internalType": "address",
          "name": "from",
          "type": "address"
        },
        {
          "internalType": "address",
          "name": "to",
          "type": "address"
        },
        {
          "internalType": "uint256",
          "name": "tokenId",
          "type": "uint256"
        },
        {
          "internalType": "bytes",
          "name": "_data",
          "type": "bytes"
        }
      ],
      "name": "safeTransferFrom",
      "outputs": [],
      "stateMutability": "nonpayable",
      "type": "function"
    },
    {
      "inputs": [
        {
          "internalType": "address",
          "name": "operator",
          "type": "address"
        },
        {
          "internalType": "bool",
          "name": "approved",
          "type": "bool"
        }
      ],
      "name": "setApprovalForAll",
      "outputs": [],
      "stateMutability": "nonpayable",
      "type": "function"
    },
    {
      "inputs": [
        {
          "internalType": "bytes4",
          "name": "interfaceId",
          "type": "bytes4"
        }
      ],
      "name": "supportsInterface",
      "outputs": [
        {
          "internalType": "bool",
          "name": "",
          "type": "bool"
        }
      ],
      "stateMutability": "view",
      "type": "function"
    },
    {
      "inputs": [],
      "name": "symbol",
      "outputs": [
        {
          "internalType": "string",
          "name": "",
          "type": "string"
        }
      ],
      "stateMutability": "view",
      "type": "function"
    },
    {
      "inputs": [
        {
          "internalType": "uint256",
          "name": "tokenId",
          "type": "uint256"
        }
      ],
      "name": "tokenURI",
      "outputs": [
        {
          "internalType": "string",
          "name": "",
          "type": "string"
        }
      ],
      "stateMutability": "view",
      "type": "function"
    },
    {
      "inputs": [],
      "name": "totalSupply",
      "outputs": [
        {
          "internalType": "uint256",
          "name": "",
          "type": "uint256"
        }
      ],
      "stateMutability": "view",
      "type": "function"
    },
    {
      "inputs": [
        {
          "internalType": "address",
          "name": "from",
          "type": "address"
        },
        {
          "internalType": "address",
          "name": "to",
          "type": "address"
        },
        {
          "internalType": "uint256",
          "name": "tokenId",
          "type": "uint256"
        }
      ],
      "name": "transferFrom",
      "outputs": [],
      "stateMutability": "nonpayable",
      "type": "function"
    },
    {
      "inputs": [
        {
          "internalType": "address",
          "name": "newOwner",
          "type": "address"
        }
      ],
      "name": "transferOwnership",
      "outputs": [],
      "stateMutability": "nonpayable",
      "type": "function"
    }
  ],
  "bytecode": "0x60806040523480156200001157600080fd5b506040518060400160405280600e81526020017f4d6574614a616d204177617264730000000000000000000000000000000000008152506040518060400160405280600781526020017f4d6574614a616d00000000000000000000000000000000000000000000000000815250816000908051906020019062000096929190620001a6565b508060019080519060200190620000af929190620001a6565b505050620000d2620000c6620000d860201b60201c565b620000e060201b60201c565b620002bb565b600033905090565b6000600760009054906101000a900473ffffffffffffffffffffffffffffffffffffffff16905081600760006101000a81548173ffffffffffffffffffffffffffffffffffffffff021916908373ffffffffffffffffffffffffffffffffffffffff1602179055508173ffffffffffffffffffffffffffffffffffffffff168173ffffffffffffffffffffffffffffffffffffffff167f8be0079c531659141344cd1fd0a4f28419497f9722a3daafe3b4186f6b6457e060405160405180910390a35050565b828054620001b49062000256565b90600052602060002090601f016020900481019282620001d8576000855562000224565b82601f10620001f357805160ff191683800117855562000224565b8280016001018555821562000224579182015b828111156200022357825182559160200191906001019062000206565b5b50905062000233919062000237565b5090565b5b808211156200025257600081600090555060010162000238565b5090565b600060028204905060018216806200026f57607f821691505b602082108114156200028657620002856200028c565b5b50919050565b7f4e487b7100000000000000000000000000000000000000000000000000000000600052602260045260246000fd5b61312580620002cb6000396000f3fe608060405234801561001057600080fd5b50600436106101165760003560e01c806370a08231116100a2578063a22cb46511610071578063a22cb465146102cd578063b88d4fde146102e9578063c87b56dd14610305578063e985e9c514610335578063f2fde38b1461036557610116565b806370a0823114610257578063715018a6146102875780638da5cb5b1461029157806395d89b41146102af57610116565b806318160ddd116100e957806318160ddd146101b557806323b872dd146101d35780633bcad4cf146101ef57806342842e0e1461020b5780636352211e1461022757610116565b806301ffc9a71461011b57806306fdde031461014b578063081812fc14610169578063095ea7b314610199575b600080fd5b61013560048036038101906101309190612019565b610381565b6040516101429190612494565b60405180910390f35b610153610463565b60405161016091906124af565b60405180910390f35b610183600480360381019061017e9190612073565b6104f5565b604051610190919061242d565b60405180910390f35b6101b360048036038101906101ae9190611fd9565b61057a565b005b6101bd610692565b6040516101ca9190612731565b60405180910390f35b6101ed60048036038101906101e89190611e67565b6106a3565b005b61020960048036038101906102049190611f7d565b610703565b005b61022560048036038101906102209190611e67565b610858565b005b610241600480360381019061023c9190612073565b610878565b60405161024e919061242d565b60405180910390f35b610271600480360381019061026c9190611dfa565b61092a565b60405161027e9190612731565b60405180910390f35b61028f6109e2565b005b610299610a6a565b6040516102a6919061242d565b60405180910390f35b6102b7610a94565b6040516102c491906124af565b60405180910390f35b6102e760048036038101906102e29190611f3d565b610b26565b005b61030360048036038101906102fe9190611eba565b610ca7565b005b61031f600480360381019061031a9190612073565b610d09565b60405161032c91906124af565b60405180910390f35b61034f600480360381019061034a9190611e27565b610e5b565b60405161035c9190612494565b60405180910390f35b61037f600480360381019061037a9190611dfa565b610eef565b005b60007f80ac58cd000000000000000000000000000000000000000000000000000000007bffffffffffffffffffffffffffffffffffffffffffffffffffffffff1916827bffffffffffffffffffffffffffffffffffffffffffffffffffffffff1916148061044c57507f5b5e139f000000000000000000000000000000000000000000000000000000007bffffffffffffffffffffffffffffffffffffffffffffffffffffffff1916827bffffffffffffffffffffffffffffffffffffffffffffffffffffffff1916145b8061045c575061045b82610fe7565b5b9050919050565b60606000805461047290612987565b80601f016020809104026020016040519081016040528092919081815260200182805461049e90612987565b80156104eb5780601f106104c0576101008083540402835291602001916104eb565b820191906000526020600020905b8154815290600101906020018083116104ce57829003601f168201915b5050505050905090565b600061050082611051565b61053f576040517f08c379a000000000000000000000000000000000000000000000000000000000815260040161053690612671565b60405180910390fd5b6004600083815260200190815260200160002060009054906101000a900473ffffffffffffffffffffffffffffffffffffffff169050919050565b600061058582610878565b90508073ffffffffffffffffffffffffffffffffffffffff168373ffffffffffffffffffffffffffffffffffffffff1614156105f6576040517f08c379a00000000000000000000000000000000000000000000000000000000081526004016105ed906126f1565b60405180910390fd5b8073ffffffffffffffffffffffffffffffffffffffff166106156110bd565b73ffffffffffffffffffffffffffffffffffffffff16148061064457506106438161063e6110bd565b610e5b565b5b610683576040517f08c379a000000000000000000000000000000000000000000000000000000000815260040161067a906125b1565b60405180910390fd5b61068d83836110c5565b505050565b600061069e600861117e565b905090565b6106b46106ae6110bd565b8261118c565b6106f3576040517f08c379a00000000000000000000000000000000000000000000000000000000081526004016106ea90612711565b60405180910390fd5b6106fe83838361126a565b505050565b61070b6110bd565b73ffffffffffffffffffffffffffffffffffffffff16610729610a6a565b73ffffffffffffffffffffffffffffffffffffffff161461077f576040517f08c379a000000000000000000000000000000000000000000000000000000000815260040161077690612691565b60405180910390fd5b600073ffffffffffffffffffffffffffffffffffffffff168273ffffffffffffffffffffffffffffffffffffffff1614156107ef576040517f08c379a00000000000000000000000000000000000000000000000000000000081526004016107e690612511565b60405180910390fd5b60006107fb600861117e565b905061080783826114c6565b6108118183611694565b61081b6008611708565b807f133252a678229ed1e86dad07413677a91badd2cb502f216e96728e85c28f41538460405161084b919061242d565b60405180910390a2505050565b61087383838360405180602001604052806000815250610ca7565b505050565b6000806002600084815260200190815260200160002060009054906101000a900473ffffffffffffffffffffffffffffffffffffffff169050600073ffffffffffffffffffffffffffffffffffffffff168173ffffffffffffffffffffffffffffffffffffffff161415610921576040517f08c379a0000000000000000000000000000000000000000000000000000000008152600401610918906125f1565b60405180910390fd5b80915050919050565b60008073ffffffffffffffffffffffffffffffffffffffff168273ffffffffffffffffffffffffffffffffffffffff16141561099b576040517f08c379a0000000000000000000000000000000000000000000000000000000008152600401610992906125d1565b60405180910390fd5b600360008373ffffffffffffffffffffffffffffffffffffffff1673ffffffffffffffffffffffffffffffffffffffff168152602001908152602001600020549050919050565b6109ea6110bd565b73ffffffffffffffffffffffffffffffffffffffff16610a08610a6a565b73ffffffffffffffffffffffffffffffffffffffff1614610a5e576040517f08c379a0000000000000000000000000000000000000000000000000000000008152600401610a5590612691565b60405180910390fd5b610a68600061171e565b565b6000600760009054906101000a900473ffffffffffffffffffffffffffffffffffffffff16905090565b606060018054610aa390612987565b80601f0160208091040260200160405190810160405280929190818152602001828054610acf90612987565b8015610b1c5780601f10610af157610100808354040283529160200191610b1c565b820191906000526020600020905b815481529060010190602001808311610aff57829003601f168201915b5050505050905090565b610b2e6110bd565b73ffffffffffffffffffffffffffffffffffffffff168273ffffffffffffffffffffffffffffffffffffffff161415610b9c576040517f08c379a0000000000000000000000000000000000000000000000000000000008152600401610b9390612571565b60405180910390fd5b8060056000610ba96110bd565b73ffffffffffffffffffffffffffffffffffffffff1673ffffffffffffffffffffffffffffffffffffffff16815260200190815260200160002060008473ffffffffffffffffffffffffffffffffffffffff1673ffffffffffffffffffffffffffffffffffffffff16815260200190815260200160002060006101000a81548160ff0219169083151502179055508173ffffffffffffffffffffffffffffffffffffffff16610c566110bd565b73ffffffffffffffffffffffffffffffffffffffff167f17307eab39ab6107e8899845ad3d59bd9653f200f220920489ca2b5937696c3183604051610c9b9190612494565b60405180910390a35050565b610cb8610cb26110bd565b8361118c565b610cf7576040517f08c379a0000000000000000000000000000000000000000000000000000000008152600401610cee90612711565b60405180910390fd5b610d03848484846117e4565b50505050565b6060610d1482611051565b610d53576040517f08c379a0000000000000000000000000000000000000000000000000000000008152600401610d4a90612651565b60405180910390fd5b6000600660008481526020019081526020016000208054610d7390612987565b80601f0160208091040260200160405190810160405280929190818152602001828054610d9f90612987565b8015610dec5780601f10610dc157610100808354040283529160200191610dec565b820191906000526020600020905b815481529060010190602001808311610dcf57829003601f168201915b505050505090506000610dfd611840565b9050600081511415610e13578192505050610e56565b600082511115610e48578082604051602001610e30929190612409565b60405160208183030381529060405292505050610e56565b610e5184611857565b925050505b919050565b6000600560008473ffffffffffffffffffffffffffffffffffffffff1673ffffffffffffffffffffffffffffffffffffffff16815260200190815260200160002060008373ffffffffffffffffffffffffffffffffffffffff1673ffffffffffffffffffffffffffffffffffffffff16815260200190815260200160002060009054906101000a900460ff16905092915050565b610ef76110bd565b73ffffffffffffffffffffffffffffffffffffffff16610f15610a6a565b73ffffffffffffffffffffffffffffffffffffffff1614610f6b576040517f08c379a0000000000000000000000000000000000000000000000000000000008152600401610f6290612691565b60405180910390fd5b600073ffffffffffffffffffffffffffffffffffffffff168173ffffffffffffffffffffffffffffffffffffffff161415610fdb576040517f08c379a0000000000000000000000000000000000000000000000000000000008152600401610fd2906124f1565b60405180910390fd5b610fe48161171e565b50565b60007f01ffc9a7000000000000000000000000000000000000000000000000000000007bffffffffffffffffffffffffffffffffffffffffffffffffffffffff1916827bffffffffffffffffffffffffffffffffffffffffffffffffffffffff1916149050919050565b60008073ffffffffffffffffffffffffffffffffffffffff166002600084815260200190815260200160002060009054906101000a900473ffffffffffffffffffffffffffffffffffffffff1673ffffffffffffffffffffffffffffffffffffffff1614159050919050565b600033905090565b816004600083815260200190815260200160002060006101000a81548173ffffffffffffffffffffffffffffffffffffffff021916908373ffffffffffffffffffffffffffffffffffffffff160217905550808273ffffffffffffffffffffffffffffffffffffffff1661113883610878565b73ffffffffffffffffffffffffffffffffffffffff167f8c5be1e5ebec7d5bd14f71427d1e84f3dd0314c0f7b2291e5b200ac8c7c3b92560405160405180910390a45050565b600081600001549050919050565b600061119782611051565b6111d6576040517f08c379a00000000000000000000000000000000000000000000000000000000081526004016111cd90612591565b60405180910390fd5b60006111e183610878565b90508073ffffffffffffffffffffffffffffffffffffffff168473ffffffffffffffffffffffffffffffffffffffff16148061125057508373ffffffffffffffffffffffffffffffffffffffff16611238846104f5565b73ffffffffffffffffffffffffffffffffffffffff16145b8061126157506112608185610e5b565b5b91505092915050565b8273ffffffffffffffffffffffffffffffffffffffff1661128a82610878565b73ffffffffffffffffffffffffffffffffffffffff16146112e0576040517f08c379a00000000000000000000000000000000000000000000000000000000081526004016112d7906126b1565b60405180910390fd5b600073ffffffffffffffffffffffffffffffffffffffff168273ffffffffffffffffffffffffffffffffffffffff161415611350576040517f08c379a000000000000000000000000000000000000000000000000000000000815260040161134790612551565b60405180910390fd5b61135b8383836118fe565b6113666000826110c5565b6001600360008573ffffffffffffffffffffffffffffffffffffffff1673ffffffffffffffffffffffffffffffffffffffff16815260200190815260200160002060008282546113b6919061289d565b925050819055506001600360008473ffffffffffffffffffffffffffffffffffffffff1673ffffffffffffffffffffffffffffffffffffffff168152602001908152602001600020600082825461140d9190612816565b92505081905550816002600083815260200190815260200160002060006101000a81548173ffffffffffffffffffffffffffffffffffffffff021916908373ffffffffffffffffffffffffffffffffffffffff160217905550808273ffffffffffffffffffffffffffffffffffffffff168473ffffffffffffffffffffffffffffffffffffffff167fddf252ad1be2c89b69c2b068fc378daa952ba7f163c4a11628f55a4df523b3ef60405160405180910390a4505050565b600073ffffffffffffffffffffffffffffffffffffffff168273ffffffffffffffffffffffffffffffffffffffff161415611536576040517f08c379a000000000000000000000000000000000000000000000000000000000815260040161152d90612631565b60405180910390fd5b61153f81611051565b1561157f576040517f08c379a000000000000000000000000000000000000000000000000000000000815260040161157690612531565b60405180910390fd5b61158b600083836118fe565b6001600360008473ffffffffffffffffffffffffffffffffffffffff1673ffffffffffffffffffffffffffffffffffffffff16815260200190815260200160002060008282546115db9190612816565b92505081905550816002600083815260200190815260200160002060006101000a81548173ffffffffffffffffffffffffffffffffffffffff021916908373ffffffffffffffffffffffffffffffffffffffff160217905550808273ffffffffffffffffffffffffffffffffffffffff16600073ffffffffffffffffffffffffffffffffffffffff167fddf252ad1be2c89b69c2b068fc378daa952ba7f163c4a11628f55a4df523b3ef60405160405180910390a45050565b61169d82611051565b6116dc576040517f08c379a00000000000000000000000000000000000000000000000000000000081526004016116d390612611565b60405180910390fd5b80600660008481526020019081526020016000209080519060200190611703929190611c0e565b505050565b6001816000016000828254019250508190555050565b6000600760009054906101000a900473ffffffffffffffffffffffffffffffffffffffff16905081600760006101000a81548173ffffffffffffffffffffffffffffffffffffffff021916908373ffffffffffffffffffffffffffffffffffffffff1602179055508173ffffffffffffffffffffffffffffffffffffffff168173ffffffffffffffffffffffffffffffffffffffff167f8be0079c531659141344cd1fd0a4f28419497f9722a3daafe3b4186f6b6457e060405160405180910390a35050565b6117ef84848461126a565b6117fb84848484611903565b61183a576040517f08c379a0000000000000000000000000000000000000000000000000000000008152600401611831906124d1565b60405180910390fd5b50505050565b606060405180602001604052806000815250905090565b606061186282611051565b6118a1576040517f08c379a0000000000000000000000000000000000000000000000000000000008152600401611898906126d1565b60405180910390fd5b60006118ab611840565b905060008151116118cb57604051806020016040528060008152506118f6565b806118d584611a9a565b6040516020016118e6929190612409565b6040516020818303038152906040525b915050919050565b505050565b60006119248473ffffffffffffffffffffffffffffffffffffffff16611bfb565b15611a8d578373ffffffffffffffffffffffffffffffffffffffff1663150b7a0261194d6110bd565b8786866040518563ffffffff1660e01b815260040161196f9493929190612448565b602060405180830381600087803b15801561198957600080fd5b505af19250505080156119ba57506040513d601f19601f820116820180604052508101906119b79190612046565b60015b611a3d573d80600081146119ea576040519150601f19603f3d011682016040523d82523d6000602084013e6119ef565b606091505b50600081511415611a35576040517f08c379a0000000000000000000000000000000000000000000000000000000008152600401611a2c906124d1565b60405180910390fd5b805181602001fd5b63150b7a0260e01b7bffffffffffffffffffffffffffffffffffffffffffffffffffffffff1916817bffffffffffffffffffffffffffffffffffffffffffffffffffffffff191614915050611a92565b600190505b949350505050565b60606000821415611ae2576040518060400160405280600181526020017f30000000000000000000000000000000000000000000000000000000000000008152509050611bf6565b600082905060005b60008214611b14578080611afd906129ea565b915050600a82611b0d919061286c565b9150611aea565b60008167ffffffffffffffff811115611b3057611b2f612b20565b5b6040519080825280601f01601f191660200182016040528015611b625781602001600182028036833780820191505090505b5090505b60008514611bef57600182611b7b919061289d565b9150600a85611b8a9190612a33565b6030611b969190612816565b60f81b818381518110611bac57611bab612af1565b5b60200101907effffffffffffffffffffffffffffffffffffffffffffffffffffffffffffff1916908160001a905350600a85611be8919061286c565b9450611b66565b8093505050505b919050565b600080823b905060008111915050919050565b828054611c1a90612987565b90600052602060002090601f016020900481019282611c3c5760008555611c83565b82601f10611c5557805160ff1916838001178555611c83565b82800160010185558215611c83579182015b82811115611c82578251825591602001919060010190611c67565b5b509050611c909190611c94565b5090565b5b80821115611cad576000816000905550600101611c95565b5090565b6000611cc4611cbf84612771565b61274c565b905082815260208101848484011115611ce057611cdf612b54565b5b611ceb848285612945565b509392505050565b6000611d06611d01846127a2565b61274c565b905082815260208101848484011115611d2257611d21612b54565b5b611d2d848285612945565b509392505050565b600081359050611d4481613093565b92915050565b600081359050611d59816130aa565b92915050565b600081359050611d6e816130c1565b92915050565b600081519050611d83816130c1565b92915050565b600082601f830112611d9e57611d9d612b4f565b5b8135611dae848260208601611cb1565b91505092915050565b600082601f830112611dcc57611dcb612b4f565b5b8135611ddc848260208601611cf3565b91505092915050565b600081359050611df4816130d8565b92915050565b600060208284031215611e1057611e0f612b5e565b5b6000611e1e84828501611d35565b91505092915050565b60008060408385031215611e3e57611e3d612b5e565b5b6000611e4c85828601611d35565b9250506020611e5d85828601611d35565b9150509250929050565b600080600060608486031215611e8057611e7f612b5e565b5b6000611e8e86828701611d35565b9350506020611e9f86828701611d35565b9250506040611eb086828701611de5565b9150509250925092565b60008060008060808587031215611ed457611ed3612b5e565b5b6000611ee287828801611d35565b9450506020611ef387828801611d35565b9350506040611f0487828801611de5565b925050606085013567ffffffffffffffff811115611f2557611f24612b59565b5b611f3187828801611d89565b91505092959194509250565b60008060408385031215611f5457611f53612b5e565b5b6000611f6285828601611d35565b9250506020611f7385828601611d4a565b9150509250929050565b60008060408385031215611f9457611f93612b5e565b5b6000611fa285828601611d35565b925050602083013567ffffffffffffffff811115611fc357611fc2612b59565b5b611fcf85828601611db7565b9150509250929050565b60008060408385031215611ff057611fef612b5e565b5b6000611ffe85828601611d35565b925050602061200f85828601611de5565b9150509250929050565b60006020828403121561202f5761202e612b5e565b5b600061203d84828501611d5f565b91505092915050565b60006020828403121561205c5761205b612b5e565b5b600061206a84828501611d74565b91505092915050565b60006020828403121561208957612088612b5e565b5b600061209784828501611de5565b91505092915050565b6120a9816128d1565b82525050565b6120b8816128e3565b82525050565b60006120c9826127d3565b6120d381856127e9565b93506120e3818560208601612954565b6120ec81612b63565b840191505092915050565b6000612102826127de565b61210c81856127fa565b935061211c818560208601612954565b61212581612b63565b840191505092915050565b600061213b826127de565b612145818561280b565b9350612155818560208601612954565b80840191505092915050565b600061216e6032836127fa565b915061217982612b74565b604082019050919050565b60006121916026836127fa565b915061219c82612bc3565b604082019050919050565b60006121b46016836127fa565b91506121bf82612c12565b602082019050919050565b60006121d7601c836127fa565b91506121e282612c3b565b602082019050919050565b60006121fa6024836127fa565b915061220582612c64565b604082019050919050565b600061221d6019836127fa565b915061222882612cb3565b602082019050919050565b6000612240602c836127fa565b915061224b82612cdc565b604082019050919050565b60006122636038836127fa565b915061226e82612d2b565b604082019050919050565b6000612286602a836127fa565b915061229182612d7a565b604082019050919050565b60006122a96029836127fa565b91506122b482612dc9565b604082019050919050565b60006122cc602e836127fa565b91506122d782612e18565b604082019050919050565b60006122ef6020836127fa565b91506122fa82612e67565b602082019050919050565b60006123126031836127fa565b915061231d82612e90565b604082019050919050565b6000612335602c836127fa565b915061234082612edf565b604082019050919050565b60006123586020836127fa565b915061236382612f2e565b602082019050919050565b600061237b6029836127fa565b915061238682612f57565b604082019050919050565b600061239e602f836127fa565b91506123a982612fa6565b604082019050919050565b60006123c16021836127fa565b91506123cc82612ff5565b604082019050919050565b60006123e46031836127fa565b91506123ef82613044565b604082019050919050565b6124038161293b565b82525050565b60006124158285612130565b91506124218284612130565b91508190509392505050565b600060208201905061244260008301846120a0565b92915050565b600060808201905061245d60008301876120a0565b61246a60208301866120a0565b61247760408301856123fa565b818103606083015261248981846120be565b905095945050505050565b60006020820190506124a960008301846120af565b92915050565b600060208201905081810360008301526124c981846120f7565b905092915050565b600060208201905081810360008301526124ea81612161565b9050919050565b6000602082019050818103600083015261250a81612184565b9050919050565b6000602082019050818103600083015261252a816121a7565b9050919050565b6000602082019050818103600083015261254a816121ca565b9050919050565b6000602082019050818103600083015261256a816121ed565b9050919050565b6000602082019050818103600083015261258a81612210565b9050919050565b600060208201905081810360008301526125aa81612233565b9050919050565b600060208201905081810360008301526125ca81612256565b9050919050565b600060208201905081810360008301526125ea81612279565b9050919050565b6000602082019050818103600083015261260a8161229c565b9050919050565b6000602082019050818103600083015261262a816122bf565b9050919050565b6000602082019050818103600083015261264a816122e2565b9050919050565b6000602082019050818103600083015261266a81612305565b9050919050565b6000602082019050818103600083015261268a81612328565b9050919050565b600060208201905081810360008301526126aa8161234b565b9050919050565b600060208201905081810360008301526126ca8161236e565b9050919050565b600060208201905081810360008301526126ea81612391565b9050919050565b6000602082019050818103600083015261270a816123b4565b9050919050565b6000602082019050818103600083015261272a816123d7565b9050919050565b600060208201905061274660008301846123fa565b92915050565b6000612756612767565b905061276282826129b9565b919050565b6000604051905090565b600067ffffffffffffffff82111561278c5761278b612b20565b5b61279582612b63565b9050602081019050919050565b600067ffffffffffffffff8211156127bd576127bc612b20565b5b6127c682612b63565b9050602081019050919050565b600081519050919050565b600081519050919050565b600082825260208201905092915050565b600082825260208201905092915050565b600081905092915050565b60006128218261293b565b915061282c8361293b565b9250827fffffffffffffffffffffffffffffffffffffffffffffffffffffffffffffffff0382111561286157612860612a64565b5b828201905092915050565b60006128778261293b565b91506128828361293b565b92508261289257612891612a93565b5b828204905092915050565b60006128a88261293b565b91506128b38361293b565b9250828210156128c6576128c5612a64565b5b828203905092915050565b60006128dc8261291b565b9050919050565b60008115159050919050565b60007fffffffff0000000000000000000000000000000000000000000000000000000082169050919050565b600073ffffffffffffffffffffffffffffffffffffffff82169050919050565b6000819050919050565b82818337600083830152505050565b60005b83811015612972578082015181840152602081019050612957565b83811115612981576000848401525b50505050565b6000600282049050600182168061299f57607f821691505b602082108114156129b3576129b2612ac2565b5b50919050565b6129c282612b63565b810181811067ffffffffffffffff821117156129e1576129e0612b20565b5b80604052505050565b60006129f58261293b565b91507fffffffffffffffffffffffffffffffffffffffffffffffffffffffffffffffff821415612a2857612a27612a64565b5b600182019050919050565b6000612a3e8261293b565b9150612a498361293b565b925082612a5957612a58612a93565b5b828206905092915050565b7f4e487b7100000000000000000000000000000000000000000000000000000000600052601160045260246000fd5b7f4e487b7100000000000000000000000000000000000000000000000000000000600052601260045260246000fd5b7f4e487b7100000000000000000000000000000000000000000000000000000000600052602260045260246000fd5b7f4e487b7100000000000000000000000000000000000000000000000000000000600052603260045260246000fd5b7f4e487b7100000000000000000000000000000000000000000000000000000000600052604160045260246000fd5b600080fd5b600080fd5b600080fd5b600080fd5b6000601f19601f8301169050919050565b7f4552433732313a207472616e7366657220746f206e6f6e20455243373231526560008201527f63656976657220696d706c656d656e7465720000000000000000000000000000602082015250565b7f4f776e61626c653a206e6577206f776e657220697320746865207a65726f206160008201527f6464726573730000000000000000000000000000000000000000000000000000602082015250565b7f6772616e743a20696e76616c6964206164647265737300000000000000000000600082015250565b7f4552433732313a20746f6b656e20616c7265616479206d696e74656400000000600082015250565b7f4552433732313a207472616e7366657220746f20746865207a65726f2061646460008201527f7265737300000000000000000000000000000000000000000000000000000000602082015250565b7f4552433732313a20617070726f766520746f2063616c6c657200000000000000600082015250565b7f4552433732313a206f70657261746f7220717565727920666f72206e6f6e657860008201527f697374656e7420746f6b656e0000000000000000000000000000000000000000602082015250565b7f4552433732313a20617070726f76652063616c6c6572206973206e6f74206f7760008201527f6e6572206e6f7220617070726f76656420666f7220616c6c0000000000000000602082015250565b7f4552433732313a2062616c616e636520717565727920666f7220746865207a6560008201527f726f206164647265737300000000000000000000000000000000000000000000602082015250565b7f4552433732313a206f776e657220717565727920666f72206e6f6e657869737460008201527f656e7420746f6b656e0000000000000000000000000000000000000000000000602082015250565b7f45524337323155524953746f726167653a2055524920736574206f66206e6f6e60008201527f6578697374656e7420746f6b656e000000000000000000000000000000000000602082015250565b7f4552433732313a206d696e7420746f20746865207a65726f2061646472657373600082015250565b7f45524337323155524953746f726167653a2055524920717565727920666f722060008201527f6e6f6e6578697374656e7420746f6b656e000000000000000000000000000000602082015250565b7f4552433732313a20617070726f76656420717565727920666f72206e6f6e657860008201527f697374656e7420746f6b656e0000000000000000000000000000000000000000602082015250565b7f4f776e61626c653a2063616c6c6572206973206e6f7420746865206f776e6572600082015250565b7f4552433732313a207472616e73666572206f6620746f6b656e2074686174206960008201527f73206e6f74206f776e0000000000000000000000000000000000000000000000602082015250565b7f4552433732314d657461646174613a2055524920717565727920666f72206e6f60008201527f6e6578697374656e7420746f6b656e0000000000000000000000000000000000602082015250565b7f4552433732313a20617070726f76616c20746f2063757272656e74206f776e6560008201527f7200000000000000000000000000000000000000000000000000000000000000602082015250565b7f4552433732313a207472616e736665722063616c6c6572206973206e6f74206f60008201527f776e6572206e6f7220617070726f766564000000000000000000000000000000602082015250565b61309c816128d1565b81146130a757600080fd5b50565b6130b3816128e3565b81146130be57600080fd5b50565b6130ca816128ef565b81146130d557600080fd5b50565b6130e18161293b565b81146130ec57600080fd5b5056fea264697066735822122062267f387a6a0c92a9c1be7d06623e850db7fda4de746298cd6331f2a8e82a1864736f6c63430008060033",
  "linkReferences": {},
  "deployedLinkReferences": {}
}